:020000040800F2
:10000000D80C00208D050008ED050008ED0500085E
:10001000ED050008ED050008ED05000800000000F2
:10002000000000000000000000000000ED050008D6
:10003000ED05000800000000ED050008ED050008D2
:10004000ED050008ED050008ED050008ED050008C8
:10005000ED050008ED050008ED050008ED050008B8
:10006000ED050008ED050008ED050008ED050008A8
:10007000ED050008ED050008ED050008C5070008BE
:10008000ED050008ED050008ED050008ED05000888
:10009000ED050008ED050008ED050008ED05000878
:1000A000ED050008ED050008ED050008ED05000868
:1000B000ED050008B1080008ED050008ED05000891
:1000C000ED050008ED050008ED050008ED05000848
:1000D000ED050008ED050008ED050008ED05000838
:1000E00081080008ED050008ED050008000000008B
:1000F0000000000000000000000000000000000000
:1001000000000000000000005FF808F180B483B038
:1001100000AF78604FF080434FF4CA521A854FF019
:1001200080427B689BB21B019BB293854FF080425B
:100130004FF080431B889BB243F018039BB213809F
:100140004FF080424FF080431B889BB243F0010385
:100150009BB2138000BF4FF080431B8A9BB203F019
:100160000103002BF7D04FF080424FF080431B8AF1
:100170009BB223F001039BB2138200BF0C37BD4634
:1001800080BC704780B483B000AF0346FB71FB793D
:1001900003F00103002B06D0234A234BDB6843F016
:1001A0004003D36005E0204A1F4BDB6823F0400387
:1001B000D360FB7903F00203002B06D01A4A1A4BD6
:1001C000DB6843F08003D36005E0174A164BDB6819
:1001D00023F08003D360FB7903F00403002B06D0E7
:1001E000114A114BDB6843F48053D36005E00E4A9B
:1001F0000D4BDB6823F48053D360FB7903F00803D5
:10020000002B06D0084A084BDB6843F40053D36048
:1002100005E0054A044BDB6823F40053D36000BFBC
:100220000C37BD4680BC7047000C014080B582B0E1
:1002300000AF0346FB71134A124BDB6843F0200307
:10024000D360FB791B09DBB21846FFF79BFF0D4A11
:100250000C4BDB6823F02003D3600A4A094BDB68B0
:1002600043F02003D360FB791846FFF78BFF054A64
:10027000044BDB6823F02003D36000BF0837BD4682
:1002800080BD00BF000C014080B582B000AF0346C6
:10029000FB71084A074BDB6823F40043D36002205C
:1002A000FFF734FFFB791846FFF7C0FF00BF0837A0
:1002B000BD4680BD0008014080B582B000AF034656
:1002C000FB71084A074BDB6843F40043D36002200C
:1002D000FFF71CFFFB791846FFF7A8FF00BF0837A0
:1002E000BD4680BD0008014080B582B000AF786097
:1002F00006E07B685A1C7A601B781846FFF7DCFF23
:100300007B681B78002BF4D100BF0837BD4680BD49
:1003100080B582B000AF03460A46FB711346BB713D
:10032000BB799B01DAB2FB791344DBB25BB263F0B9
:100330007F035BB2DBB21846FFF7A6FF00BF0837AA
:10034000BD4680BD80B500AF0120FFF79DFF0220B4
:10035000FFF7DCFE00BF80BD80B582B000AF4FF478
:100360007A70FFF7D3FE2A4A294BDB6823F4004357
:10037000D360284A274BDB6823F02003D360002397
:10038000FB7114E0234A234BDB6843F02003D36066
:100390000320FFF7F7FE1F4A1E4BDB6823F0200304
:1003A000D3600520FFF7B2FEFB790133FB71FB79C7
:1003B000022BE7D9174A174BDB6843F02003D360C1
:1003C0000220FFF7A3FE0220FFF7DCFE0220FFF76A
:1003D0009DFE104A0F4BDB6823F02003D360022000
:1003E000FFF794FE2820FFF74FFF0820FFF74CFF90
:1003F0000120FFF749FF0220FFF788FE0620FFF7E4
:1004000043FF0C20FFF740FF00BF0837BD4680BD0B
:1004100000080140000C014080B500AF154A154BA3
:100420001B6843F0010313601249124B5A68124BC8
:1004300013404B600F4A0F4B1B6823F0847323F467
:10044000803313600B4A0B4B1B6823F4802313602B
:10045000084A084B5B6823F4FE035360054B4FF4D6
:100460001F029A6000F00CF8044B4FF000629A6093
:1004700000BF80BD001002400000FFF800ED00E06A
:1004800080B500AF00F002F800BF80BD80B483B03B
:1004900000AF00237B6000233B603A4A394B1B6866
:1004A00043F480331360374B1B6803F400333B6025
:1004B0007B6801337B603B68002B03D17B68B3F51D
:1004C000A06FF0D12F4B1B6803F40033002B02D038
:1004D00001233B6001E000233B603B68012B4BD1D3
:1004E000294A294B1B6843F010031360264A264B08
:1004F0001B6823F003031360234A234B1B6843F05C
:10050000020313601F4A1F4B5B6853601D4A1D4B5B
:100510005B6853601B4A1B4B5B6843F4806353600A
:10052000184A184B5B6823F47C135360154A154B2B
:100530005B6843F4E8135360124A124B1B6843F0A4
:100540008073136000BF0F4B1B6803F00073002B18
:10055000F9D00C4A0B4B5B6823F003035360094A44
:10056000084B5B6843F00203536000BF054B5B68B8
:1005700003F00C03082BF9D100BF0C37BD4680BC3B
:10058000704700BF001002400020024080B582B0DA
:1005900000AF114B7B60114B3B6007E03B681A1DBD
:1005A0003A607A68111D796012681A603B680C4ADB
:1005B0009342F3D30B480C494FF000028842B8BF76
:1005C00040F8042BFADBFFF727FF00F0CFF800BF5D
:1005D0000837BD4680BD00BFE46900080000002068
:1005E0008C0800208C080020D808002080B400AFC0
:1005F000FEE700BF80B489B000AF786039600023A7
:10060000FB6100233B610023BB610023FB600023EF
:100610007B610023BB603B68DB7803F00F03FB6169
:100620003B68DB7803F01003002B05D03B689B7818
:100630001A46FB691343FB613B681B88DBB2002B46
:1006400044D07B681B687B610023BB6138E00122DA
:10065000BB6902FA03F3FB603B681B881A46FB6820
:1006600013403B613A69FB689A4226D1BB699B0003
:10067000FB600F22FB6802FA03F3BB60BB68DB433D
:100680007A6913407B61FA69FB6802FA03F37A69BD
:1006900013437B613B68DB78282B05D10122BB69C2
:1006A0009A407B685A6108E03B68DB78482B04D1AC
:1006B0000122BB699A407B681A61BB690133BB6147
:1006C000BB69072BC3D97B687A691A603B681B88B2
:1006D000FF2B46D97B685B687B610023BB613AE0F6
:1006E000BB690833012202FA03F3FB603B681B88F5
:1006F0001A46FB6813403B613A69FB689A4227D16E
:10070000BB699B00FB600F22FB6802FA03F3BB602E
:10071000BB68DB437A6913407B61FA69FB6802FAC4
:1007200003F37A6913437B613B68DB78282B05D19F
:10073000BB69083301229A407B685A613B68DB78C9
:10074000482B05D1BB69083301229A407B681A61A6
:10075000BB690133BB61BB69072BC1D97B687A696F
:100760005A6000BF2437BD4680BC704780B500AFDB
:100770000D4800F0A7FB0D4A0C4BDB6843F4807377
:10078000D3600B4A0A4BDB6843F40043D360FFF7A6
:10079000E3FD00F09BFC00F09FFC064B064A074976
:1007A000074800F001FAF8E7C808002000080140F7
:1007B000000C01408F0800208E0800208D080020CA
:1007C0008C08002080B584B000AF244A234B1B68FE
:1007D00023F001031360214B09225A60204A204B69
:1007E0005B6843F4803353601C4B1E4ADA603B461F
:1007F0001D4A07CA03C31A803B461A49184601F02E
:10080000BDFD0346002B08D1184A184BDB6883F462
:100810000043D360164B01221A703B46154A07CAA3
:1008200003C31A803B460F49184601F0A7FD034653
:10083000002B08D1104A104BDB6883F48073D3601F
:100840000E4B01221A70054A044B1B6843F001034A
:10085000136000BF18461037BD4680BD58000240E7
:1008600000000240C808002004680008000C014095
:100870008D08002010680008000801408C08002046
:1008800080B400AF084A084B1B889BB243F00103B9
:100890009BB21380054B4FF4C0525A6100BF1846FB
:1008A000BD4680BC704700BF00040040000401400A
:1008B00080B400AF154A154B1B8A9BB223F001038D
:1008C0009BB21382124B9B6803F40063002B08D188
:1008D0000F4A0F4BDB6883F48073D3600D4B01220A
:1008E0001A700B4B9B6803F48053002B08D10A4A03
:1008F000094BDB6883F40043D360084B01221A7074
:1009000000BF1846BD4680BC704700BF00040040D1
:10091000000801408E080020000C01408F080020D4
:1009200080B582B000AF1C23FB710323BB714FF471
:100930004073BB803B1D19460848FFF75BFE084A21
:10094000074B5B6843F0020353603B1D19460348A5
:10095000FFF750FE00BF0837BD4680BD000C0140C8
:100960000000014080B584B000AF4FF480637B810C
:100970004FF48043BB814CF250333B604BF6FF7326
:10098000FB800023BB80AA233B813B4619460548D8
:1009900000F088FC0121034800F046FD00BF10373D
:1009A000BD4680BD0054004080B584B000AF034612
:1009B000FB7101212D4800F057FD00BF2C492B4849
:1009C00000F0EEFD0346002BF8D00022D02127488E
:1009D00000F0C8FD00BF2749244800F0E1FD0346B0
:1009E000002BF8D0FB791946204800F09DFD00BF90
:1009F00021491E4800F0D4FD0346002BF8D0012108
:100A00001A4800F031FD00BF1949184800F0C8FD30
:100A10000346002BF8D00122D121144800F0A2FD9A
:100A200000BF1649114800F0BBFD0346002BF8D06B
:100A300000210E4800F058FD01210C4800F034FD63
:100A400000BF0F49094800F0ABFD0346002BF8D06A
:100A5000064800F079FD0346FB730121034800F0CE
:100A600043FDFB7B18461037BD4680BD0054004057
:100A70000100030082000700840007000200030059
:100A80004000030080B582B000AF03460A46FB7108
:100A90001346BB7101211D4800F0E6FC00BF1C4954
:100AA0001A4800F07DFD0346002BF8D00022D0212B
:100AB000164800F057FD00BF1649144800F070FDBD
:100AC0000346002BF8D0FB791946104800F02CFDA6
:100AD00000BF11490D4800F063FD0346002BF8D01C
:100AE000BB791946094800F01FFD00BF0A490748B5
:100AF00000F056FD0346002BF8D00121034800F01A
:100B0000D3FC00BF0837BD4680BD00BF0054004085
:100B100001000300820007008400070080B500AFD9
:100B2000FFF7FEFEFFF71EFF00216B20FFF7AAFF75
:100B300000BF80BD80B584B000AF03460A46FB719C
:100B40001346BB71FB791846FFF72EFF0346FB8166
:100B5000BB791846FFF728FF03467B73FB891B020E
:100B60009AB27B7B9BB213449BB21BB218461037E0
:100B7000BD4680BD80B483B000AF0346FB71084919
:100B800097F907305B09FA7902F01F02012000FA99
:100B900002F241F8232000BF0C37BD4680BC7047ED
:100BA00000E100E00000000090B5ABB000AFF860DD
:100BB000B9607A603B600023C7F8A4300023C7F80F
:100BC000A0300FE03E213D20FFF7B4FF03461A4658
:100BD000D7F8A4301344C7F8A430D7F8A0300133B5
:100BE000C7F8A030D7F8A030632BEBDDD7F8A4000E
:100BF00001F0DAF90346C7F89C30A749D7F89C0002
:100C000001F0DAFA0346C7F89C304FF08D41D7F86F
:100C10009C0001F0D1FA0346A049184601F018FAE9
:100C20000346C7F898304FF08D41D7F89C0001F08B
:100C3000C3FA0346184600F047FE4FF00002984BF7
:100C400000F096FE03460C461846214690A3D3E9D1
:100C5000002300F08DFE03460C461846214601F0A5
:100C600099F80346C7F89430D7F8980000F02CFEA6
:100C700003460C4607F158001A462346894901F0FD
:100C800037FB0346C7F89030D7F8940000F01CFEFD
:100C900003460C4607F124001A462346814901F019
:100CA00027FB0346C7F88C307B681B78002B0BD1E1
:100CB0003B681B78002B07D1FB681B78002B03D106
:100CC000BB681B78002B25D000210820FFF720FBF4
:100CD0007548FFF709FB00210820FFF719FB07F112
:100CE00058031846FFF700FBDF20FFF7E5FA012164
:100CF0000820FFF70DFB6C48FFF7F6FA01210820EA
:100D0000FFF706FB07F124031846FFF7EDFA7B68AF
:100D100000221A70654A07F11C0392E8030083E879
:100D2000030007F11C0207F158031146184601F0B1
:100D300005FB07F15803184601F05CFC03461A4610
:100D400007F1580313445A491A460B461B8813806F
:100D5000584A07F1100307CA03C31A8007F11002AB
:100D600007F124031146184601F0E8FA07F12403BD
:100D7000184601F03FFC03461A4607F124031344CA
:100D80004B491A460B461B881380FB681B78002BC7
:100D900003D13B681B78002B33D0474A464B1B6876
:100DA00023F001031360444C07F11C03184601F0C3
:100DB00021FC0246D7F890301344013363603F4A68
:100DC0003E4B5B6843F4805353603D4A3C4B1B8869
:100DD0009BB223F040039BB21380374A07F15803BC
:100DE000D360354A344B1B6843F00103136000BFE6
:100DF000324B1B6803F40053002BF9D0FB68002230
:100E00001A70BB681B78002B03D13B681B78002B42
:100E100033D0294A284B1B6823F001031360264C6A
:100E200007F11003184601F0E5FB0246D7F88C30B5
:100E3000134401336360214A204B5B6843F48053C1
:100E400053601F4A1E4B1B889BB223F040039BB28A
:100E50001380194A07F12403D360174A164B1B6805
:100E600043F00103136000BF144B1B6803F40053ED
:100E7000002BF9D0BB6800221A703B681B78002B4E
:100E800002D03B6800221A7000BFAC37BD4690BD4F
:100E90001F85EB51B81E09400000C8420000B44253
:100EA0000000E03F1C680008246800083068000863
:100EB0002C68000838680008440002400000024026
:100EC0000038014080B584B000AF7860754A754B3A
:100ED0005B6943F001035361724A724BDB6943F46F
:100EE000001343F00703D3616E4A6E4B9B6943F4D2
:100EF000904343F07D0393610423FB730323BB738F
:100F00004FF48063BB8107F10C0319466648FFF775
:100F100071FB1823FB730323BB734FF40073BB8176
:100F200007F10C0319466048FFF764FB1023FB73BD
:100F30000323BB734FF40143BB8107F10C03194634
:100F40005948FFF757FB4823FB730323BB734FF448
:100F5000C053BB8107F10C0319465348FFF74AFB06
:100F60001023FB730323BB734BF2E003BB8107F138
:100F70000C0319464D48FFF73DFB4D4A4C4B5B684F
:100F800043F0007353604B4A4A4B9B899BB243F03A
:100F90000C039BB29381474B40F6A6621A81454AE7
:100FA000444B9B8A9BB243F0C0039BB29382414A5D
:100FB000404B9B899BB243F400539BB293813E4AC2
:100FC0003D4B1B6843F4845343F0100313603A4BCA
:100FD0003A4A9A603A4A3A4B1B6843F4845343F0C6
:100FE000020313600F20FFF7C5FD354A7B68D3600D
:100FF000334B09225A60324B304A9A60304A304BA8
:101000001B6843F0010313602E4B4FF4CA521A853C
:101010002C4B4FF448729A852A4A2A4B1B889BB264
:1010200043F018039BB21380264A264B9B899BB240
:1010300043F001039BB293811D20FFF79BFD1C4AE7
:101040001B4B1B691361204A1F4B1B6843F4006351
:1010500013601D4A1C4BDB6843F40063D3601A4ADB
:10106000194B1B6943F400631361114A104B5B6910
:101070005361154A144B1B6843F480531360124AA2
:10108000114BDB6843F48053D3600F4A0E4B1B694E
:1010900043F4805313612820FFF76CFD00BF103725
:1010A000BD4680BD0010024000080140000C014018
:1010B0000000014000380140440002400438014073
:1010C00058000240000400400004014080B500AF19
:1010D000FFF724FD00BF80BD80B500AFFFF732F9F8
:1010E00000210020FFF714F90548FFF7FDF8012162
:1010F0000020FFF70DF90348FFF7F6F800BF80BDA9
:10110000446800085068000880B487B000AF786079
:1011100000237B6100233B610023FB600023BB6055
:101120004C4B5B6803F00C037B617B69042B07D09D
:10113000082B09D0002B33D17B68474A1A6033E073
:101140007B68454A1A602FE0424B5B6803F47013DA
:101150003B61404B5B6803F48033FB603B699B0C55
:1011600002333B61FB68002B06D13B693B4A02FB23
:1011700003F27B681A6017E0364B5B6803F40033B8
:10118000002B06D03B69354A02FB03F27B681A60EC
:101190000AE03B69304A02FB03F27B681A6003E015
:1011A0007B682D4A1A6000BF2A4B5B6803F0F0038E
:1011B0007B617B691B097B61294A7B6913441B782E
:1011C000DBB2BB607B681A68BB68DA407B685A6038
:1011D000204B5B6803F4E0637B617B691B0A7B61E6
:1011E0001F4A7B6913441B78DBB2BB607B685A687B
:1011F000BB68DA407B689A60164B5B6803F4605307
:101200007B617B69DB0A7B61154A7B6913441B7830
:10121000DBB2BB607B685A68BB68DA407B68DA6027
:101220000C4B5B6803F440437B617B699B0B7B61E8
:101230000C4A7B6913441B78DBB2BB607B68DA68BD
:10124000BB68B2FBF3F27B681A6100BF1C37BD4676
:1012500080BC70470010024000127A0000093D0077
:10126000000000201000002080B485B000AF78603E
:101270000A4B1B68002B02D1084B094A1A60074B26
:101280001B68FB60054B1A687B681344034A1360B4
:10129000FB6818461437BD4680BC70479008002094
:1012A000D808002080B58AB000AF7860396000238C
:1012B000FB8400237B840423BB84574BFB617B6846
:1012C0009B88FB84FB8C23F03F03FB8407F108031E
:1012D0001846FFF719FF3B69FB61FB694F4AA2FB08
:1012E00003239B0C7B84FA8C7B8C1343FB847B68ED
:1012F000FA8C9A807B681B889BB223F001039AB218
:101300007B681A800023FB843B681B68444A934235
:1013100015D83B681B685B00FA69B2FBF3F3BB842A
:10132000BB8C032B01D80423BB84FA8CBB8C1343E6
:10133000FB847B8C01339AB27B681A8440E03B6863
:10134000DB884BF6FF72934209D13B681A6813465B
:101350005B001344FA69B2FBF3F3BB840EE03B6815
:101360001A6813469B0013449A001344FA69B2FBAF
:10137000F3F3BB84BB8C43F48043BB84BB8CC3F3CB
:101380000B03002B03D1BB8C43F00103BB84BA8C4D
:10139000FB8C13439BB26FEA43436FEA5343FB84D6
:1013A0007B8C4FF4967202FB03F31E4A82FB0312FE
:1013B0009211DB17D31A9BB201339AB27B681A845D
:1013C0007B68FA8C9A837B681B889BB243F001038D
:1013D0009AB27B681A807B681B88FB84FB8C23F4A1
:1013E000816323F00203FB843B689A883B685B8936
:1013F00013439AB2FB8C1343FB847B68FA8C1A80EC
:101400003B689A893B681B8913439AB27B681A81AF
:1014100000BF2837BD4680BD00127A0083DE1B4323
:10142000A0860100D34D621080B483B000AF786015
:101430000B46FB70FB78002B08D07B681B889BB2A7
:1014400043F001039AB27B681A8007E07B681B882F
:101450009BB223F001039AB27B681A8000BF0C375D
:10146000BD4680BC704700BF80B483B000AF7860D9
:101470000B46FB70FB78002B08D07B681B889BB267
:1014800043F480739AB27B681A8007E07B681B88FC
:101490009BB223F480739AB27B681A8000BF0C372A
:1014A000BD4680BC704700BF80B483B000AF786099
:1014B0000B46FB70FB78002B08D07B681B889BB227
:1014C00043F400739AB27B681A8007E07B681B883C
:1014D0009BB223F400739AB27B681A8000BF0C376A
:1014E000BD4680BC704700BF80B483B000AF786059
:1014F0000B46FB70FB78002B08D07B681B889BB2E7
:1015000043F480639AB27B681A8007E07B681B888B
:101510009BB223F480639AB27B681A8000BF0C37B9
:10152000BD4680BC704700BF80B483B000AF786018
:101530000B46FB70FB789AB27B681A8200BF0C37AF
:10154000BD4680BC704700BF80B483B000AF7860F8
:101550007B681B8A9BB2DBB218460C37BD4680BC49
:10156000704700BF80B483B000AF78600B46FB705B
:101570001346BB70BB78002B04D0FB7843F001030B
:10158000FB7003E0FB7823F00103FB70FB789AB259
:101590007B681A8200BF0C37BD4680BC704700BF15
:1015A00080B487B000AF7860396000233B610023CE
:1015B000FB600023BB600023FB757B689B8A9BB2AA
:1015C000FB607B681B8B9BB2BB60BB681B04BB6072
:1015D000FA68BB68134323F07F433B613A693B6879
:1015E0001A403B689A4202D10123FB7501E00023B7
:1015F000FB75FB7D18461C37BD4680BC704700BF9D
:1016000081F0004102E000BF83F0004330B54FEAB3
:1016100041044FEA430594EA050F08BF90EA020F20
:101620001FBF54EA000C55EA020C7FEA645C7FEAB3
:10163000655C00F0E2804FEA5454D4EB5555B8BFD6
:101640006D420CDD2C4480EA020281EA030382EA47
:10165000000083EA010180EA020281EA0303362DD9
:1016600088BF30BD11F0004F4FEA01314FF4801CAC
:101670004CEA113102D0404261EB410113F0004FBE
:101680004FEA03334CEA133302D0524263EB430375
:1016900094EA050F00F0A780A4F10104D5F1200E13
:1016A0000DDB02FA0EFC22FA05F2801841F100016E
:1016B00003FA0EF2801843FA05F359410EE0A5F142
:1016C00020050EF1200E012A03FA0EFC28BF4CF073
:1016D000020C43FA05F3C01851EBE37101F0004529
:1016E00007D54FF0000EDCF1000C7EEB00006EEB36
:1016F0000101B1F5801F1BD3B1F5001F0CD34908C0
:101700005FEA30004FEA3C0C04F101044FEA445216
:1017100012F5800F80F09A80BCF1004F08BF5FEA9D
:10172000500C50F1000041EB045141EA050130BD7D
:101730005FEA4C0C404141EB010111F4801FA4F120
:101740000104E9D191F0000F04BF01460020B1FA75
:1017500081F308BF2033A3F10B03B3F120020CDAAD
:101760000C3208DD02F1140CC2F10C0201FA0CF08B
:1017700021FA02F10CE002F11402D8BFC2F1200CF0
:1017800001FA02F120FA0CFCDCBF41EA0C019040A6
:10179000E41AA2BF01EB0451294330BD6FEA0404EF
:1017A0001F3C1CDA0C340EDC04F11404C4F12002DA
:1017B00020FA04F001FA02F340EA030021FA04F3EC
:1017C00045EA030130BDC4F10C04C4F1200220FA43
:1017D00002F001FA04F340EA0300294630BD21FA81
:1017E00004F0294630BD94F0000F83F4801306BF47
:1017F00081F480110134013D4EE77FEA645C18BF3B
:101800007FEA655C29D094EA050F08BF90EA020FD1
:1018100005D054EA000C04BF1946104630BD91EAC9
:10182000030F1EBF0021002030BD5FEA545C05D1CC
:101830004000494128BF41F0004130BD14F580040B
:101840003CBF01F5801130BD01F0004545F0FE417F
:1018500041F470014FF0000030BD7FEA645C1ABFB4
:10186000194610467FEA655C1CBF0B46024650EAEB
:10187000013406BF52EA033591EA030F41F4002117
:1018800030BD00BF90F0000F04BF0021704730B59D
:101890004FF4806404F132044FF000054FF0000172
:1018A00050E700BF90F0000F04BF0021704730B533
:1018B0004FF4806404F1320410F0004548BF404208
:1018C0004FF000013EE700BF42004FEAE2014FEA5D
:1018D00031014FEA02701FBF12F07F4393F07F4F38
:1018E00081F06051704792F0000F14BF93F07F4F6A
:1018F000704730B54FF4607401F0004521F00041AD
:1019000020E700BF50EA010208BF704730B54FF032
:1019100000050AE050EA010208BF704730B511F037
:10192000004502D5404261EB41014FF4806404F16F
:1019300032045FEA915C3FF4DCAE4FF003025FEAF1
:10194000DC0C18BF03325FEADC0C18BF033202EB79
:10195000DC02C2F1200300FA03FC20FA02F001FAD3
:1019600003FE40EA0E0021FA02F11444C1E600BF72
:1019700070B54FF0FF0C4CF4E06C1CEA11541DBF25
:101980001CEA135594EA0C0F95EA0C0F00F0DEF8F0
:101990002C4481EA030621EA4C5123EA4C5350EAD5
:1019A000013518BF52EA033541F4801143F4801326
:1019B00038D0A0FB02CE4FF00005E1FB02E506F0B7
:1019C0000042E0FB03E54FF00006E1FB03569CF00C
:1019D000000F18BF4EF0010EA4F1FF04B6F5007F12
:1019E00064F5407404D25FEA4E0E6D4146EB060684
:1019F00042EAC62141EA55514FEAC52040EA5E500D
:101A00004FEACE2EB4F1FD0C88BFBCF5E06F1ED8B6
:101A1000BEF1004F08BF5FEA500E50F1000041EBED
:101A2000045170BD06F0004646EA010140EA02009A
:101A300081EA0301B4EB5C04C2BFD4EB0C0541EABC
:101A4000045170BD41F480114FF0000E013C00F3D1
:101A5000AB8014F1360FDEBF002001F0004170BDF5
:101A6000C4F10004203C35DA0C341BDC04F114040E
:101A7000C4F1200500FA05F320FA04F001FA05F29A
:101A800040EA020001F0004221F0004110EBD37067
:101A900021FA04F642EB06015EEA430E08BF20EA93
:101AA000D37070BDC4F10C04C4F1200500FA04F336
:101AB00020FA05F001FA04F240EA020001F00041C8
:101AC00010EBD37041F100015EEA430E08BF20EA3B
:101AD000D37070BDC4F1200500FA05F24EEA020E83
:101AE00020FA04F301FA05F243EA020321FA04F0B2
:101AF00001F0004121FA04F220EA020000EBD37069
:101B00005EEA430E08BF20EAD37070BD94F0000F68
:101B10000FD101F00046400041EB010111F4801F9C
:101B200008BF013CF7D041EA060195F0000F18BF4D
:101B3000704703F00046520043EB030313F4801F89
:101B400008BF013DF7D043EA0603704794EA0C0F43
:101B50000CEA135518BF95EA0C0F0CD050EA410659
:101B600018BF52EA4306D1D181EA030101F00041D6
:101B70004FF0000070BD50EA410606BF10461946FE
:101B800052EA430619D094EA0C0F02D150EA01360A
:101B900013D195EA0C0F05D152EA03361CBF10464B
:101BA00019460AD181EA030101F0004141F0FE41EA
:101BB00041F470014FF0000070BD41F0FE4141F46E
:101BC000780170BD70B54FF0FF0C4CF4E06C1CEA6E
:101BD00011541DBF1CEA135594EA0C0F95EA0C0F23
:101BE00000F0A7F8A4EB050481EA030E52EA0335DE
:101BF0004FEA013100F088804FEA03334FF08055FF
:101C000045EA131343EA12634FEA022245EA11152B
:101C100045EA10654FEA00260EF000419D4208BFDC
:101C2000964244F1FD0404F5407402D25B084FEA89
:101C30003202B61A65EB03055B084FEA32024FF435
:101C400080104FF4002CB6EB020E75EB030E22BF92
:101C5000B61A754640EA0C005B084FEA3202B6EB52
:101C6000020E75EB030E22BFB61A754640EA5C0001
:101C70005B084FEA3202B6EB020E75EB030E22BF91
:101C8000B61A754640EA9C005B084FEA3202B6EB92
:101C9000020E75EB030E22BFB61A754640EADC0051
:101CA00055EA060E18D04FEA051545EA16754FEAB3
:101CB00006164FEAC30343EA52734FEAC2025FEAD1
:101CC0001C1CC0D111F4801F0BD141EA00014FF060
:101CD00000004FF0004CB6E711F4801F04BF014331
:101CE0000020B4F1FD0C88BFBCF5E06F3FF6AFAE4D
:101CF000B5EB030C04BFB6EB020C5FEA500C50F1DD
:101D0000000041EB045170BD0EF0004E4EEA11315F
:101D100014EB5C04C2BFD4EB0C0541EA045170BD66
:101D200041F480114FF0000E013C90E645EA060EAA
:101D30008DE60CEA135594EA0C0F08BF95EA0C0FD8
:101D40003FF43BAF94EA0C0F0AD150EA01347FF420
:101D500034AF95EA0C0F7FF425AF104619462CE7F7
:101D600095EA0C0F06D152EA03353FF4FDAE10465A
:101D7000194622E750EA410618BF52EA43067FF4AB
:101D8000C5AE50EA41047FF40DAF52EA43057FF43B
:101D9000EBAE12E74FEA4102B2F1E04324BFB3F5E4
:101DA000001CDCF1FE5C0DD901F0004C4FEAC002D2
:101DB0004CEA5070B2F1004F40EB830008BF20F0B6
:101DC0000100704711F0804F21D113F13872BCBF70
:101DD00001F00040704741F480114FEA5252C2F1C5
:101DE0001802C2F1200C10FA0CF320FA02F018BF0E
:101DF00040F001004FEAC1234FEAD32303FA0CFC61
:101E000040EA0C0023FA02F34FEA4303CCE77FEAEF
:101E1000625307D150EA01331EBF4FF0FE4040F439
:101E20004000704701F0004040F0FE4040F40000E8
:101E3000704700BF80F0004002E000BF81F0004129
:101E400042001FBF5FEA410392EA030F7FEA226C60
:101E50007FEA236C6AD04FEA1262D2EB1363C1BFF0
:101E6000D218414048404140B8BF5B42192B88BF5F
:101E7000704710F0004F40F4000020F07F4018BF82
:101E8000404211F0004F41F4000121F07F4118BFA2
:101E9000494292EA030F3FD0A2F1010241FA03FC4A
:101EA00010EB0C00C3F1200301FA03F100F0004332
:101EB00002D5494260EB4000B0F5000F13D3B0F1FA
:101EC000807F06D340084FEA310102F10102FE2A69
:101ED00051D2B1F1004F40EBC25008BF20F00100D9
:101EE00040EA03007047490040EB000010F4000F87
:101EF000A2F10102EDD1B0FA80FCACF1080CB2EB1A
:101F00000C0200FA0CF0AABF00EBC2505242184378
:101F1000BCBFD0401843704792F0000F81F400011D
:101F200006BF80F400000132013BB5E74FEA4103F0
:101F30007FEA226C18BF7FEA236C21D092EA030F5C
:101F400004D092F0000F08BF0846704790EA010FD6
:101F50001CBF0020704712F07F4F04D1400028BF03
:101F600040F00040704712F100723CBF00F50000E5
:101F7000704700F0004343F0FE4040F4000070471B
:101F80007FEA226216BF08467FEA236301464202C7
:101F900006BF5FEA412390EA010F40F480007047DA
:101FA0004FF0000304E000BF10F0004348BF404280
:101FB0005FEA000C08BF704743F0964301464FF0BC
:101FC00000001CE050EA010208BF70474FF0000318
:101FD0000AE000BF50EA010208BF704711F0004359
:101FE00002D5404261EB41015FEA010C02BF844629
:101FF0000146002043F0B64308BFA3F18053A3F588
:102000000003BCFA8CF2083AA3EBC25310DB01FACE
:1020100002FC634400FA02FCC2F12002BCF1004F52
:1020200020FA02F243EB020008BF20F001007047E3
:1020300002F1200201FA02FCC2F1200250EA4C0037
:1020400021FA02F243EB020008BF20EADC7070477D
:102050004FF0FF0C1CEAD0521EBF1CEAD15392EA8B
:102060000C0F93EA0C0F6FD01A4480EA010C400267
:1020700018BF5FEA41211ED04FF0006343EA5010C1
:1020800043EA5111A0FB01310CF00040B1F5000F03
:102090003EBF490041EAD3715B0040EA010062F1B2
:1020A0007F02FD2A1DD8B3F1004F40EBC25008BF9C
:1020B00020F00100704790F0000F0CF0004C08BFBA
:1020C00049024CEA502040EA51207F3AC2BFD2F187
:1020D000FF0340EAC250704740F400004FF0000395
:1020E000013A5DDC12F1190FDCBF00F000407047CF
:1020F000C2F10002410021FA02F1C2F1200200FA0D
:1021000002FC5FEA310040F1000053EA4C0308BFD3
:1021100020EADC70704792F0000F00F0004C02BF24
:10212000400010F4000F013AF9D040EA0C0093F09F
:10213000000F01F0004C02BF490011F4000F013BF9
:10214000F9D041EA0C018FE70CEAD15392EA0C0F67
:1021500018BF93EA0C0F0AD030F0004C18BF31F0D2
:10216000004CD8D180EA010000F00040704790F0A8
:10217000000F17BF90F0004F084691F0000F91F04C
:10218000004F14D092EA0C0F01D142020FD193EA12
:102190000C0F03D14B0218BF084608D180EA01009A
:1021A00000F0004040F0FE4040F40000704740F076
:1021B000FE4040F4400070474FF0FF0C1CEAD05244
:1021C0001EBF1CEAD15392EA0C0F93EA0C0F69D0A0
:1021D000A2EB030280EA010C49024FEA402037D00B
:1021E0004FF0805343EA111143EA10130CF0004002
:1021F0008B4238BF5B0042F17D024FF4000C8B42F2
:1022000024BF5B1A40EA0C00B3EB510F24BFA3EBD1
:10221000510340EA5C00B3EB910F24BFA3EB9103A1
:1022200040EA9C00B3EBD10F24BFA3EBD10340EAFB
:10223000DC001B0118BF5FEA1C1CE0D1FD2A3FF641
:1022400050AF8B4240EBC25008BF20F001007047F6
:102250000CF0004C4CEA50207F32C2BFD2F1FF0399
:1022600040EAC250704740F400004FF00003013ACA
:1022700037E792F0000F00F0004C02BF400010F46E
:10228000000F013AF9D040EA0C0093F0000F01F082
:10229000004C02BF490011F4000F013BF9D041EAA4
:1022A0000C0195E70CEAD15392EA0C0F08D14202D7
:1022B0007FF47DAF93EA0C0F7FF470AF084676E7AA
:1022C00093EA0C0F04D14B023FF44CAF08466EE783
:1022D00030F0004C18BF31F0004CCAD130F0004251
:1022E0007FF45CAF31F000437FF43CAF5FE700BFA9
:1022F0000EB40146F0B54FF6FF779CB021AC54F810
:10230000042B0D4823466FF00045029106914FF4CF
:10231000027602A900680194ADF81670ADF8146059
:102320000495079500F094F9029B00221A701CB0E6
:10233000BDE8F04003B0704740040020830710B5AB
:10234000044610D10268A2F1013323EA020313F01C
:10235000803F08D150F8042FA2F1013323EA020391
:1023600013F0803FF6D003781BB110F8013F002B2B
:10237000FBD100F0E1F8204610BD00BF80EA010C5F
:102380001CF0030F37D110F0030C20F0030021F0F4
:10239000030150F8042B08BF51F8043B0ED08CF019
:1023A000030C6FF07F434FEACC0C23FA0CFC51F87E
:1023B000043B42EA0C0243EA0C0300BFA2F1013CD9
:1023C0009A4201BF2CEA020C1CF0803F50F8042B0B
:1023D00051F8043BF2D04FEA02604FEA1222012882
:1023E00028BFB0EB036F08BF1B0AF4D003F0FF0354
:1023F000000EC01A704710F0030F0AD010F8012B1E
:1024000011F8013B012A28BF9A42F4D0A2EB030045
:1024100070474DF8045D50F8042B01F0030521F0DE
:10242000030151F8043B022D26D04DD822F07F4500
:10243000B5EB132FA2F1013C2CEA020C0DD11CF0DC
:10244000803C08BF51F8043B0AD185EA0205B5EB90
:10245000036F0CD150F8042BE8E74FEA13235BE03D
:102460003CF07F4C54D10B784FEA126554E04FEAB0
:10247000126503F0FF034FE04FEA0245A2F1013C71
:102480004FEA15452CEA020CB5EB134F18D11CF09E
:10249000803C08BF51F8043B07D185EA0205B5EB43
:1024A000034F09D150F8042BE6E75FEA0C4C2FD11B
:1024B0000B884FEA12452FE04FEA03434FEA1245DB
:1024C0004FEA134328E000BF02F0FF05B5EB136F9E
:1024D000A2F1013C2CEA020C0DD11CF0803C08BF9B
:1024E00051F8043B0AD185EA0205B5EB032F0AD166
:1024F00050F8042BE8E74FEA13630DE012F0FF0FEA
:1025000006D051F8043B4FEA122523F07F4303E045
:102510004FF0000020BC704705F0FF0203F0FF0001
:10252000012828BF904204BF2D0A1B0AF4D0A2EB59
:10253000000020BC704700BF80EA0102844612F010
:10254000030F4FD111F0030F32D14DF8044D11F0AC
:10255000040F51F8043B0BD0A3F101329A4312F05F
:10256000803F04BF4CF8043B51F8043B16D100BF38
:1025700051F8044BA3F101329A4312F0803FA4F1C9
:1025800001320BD14CF8043BA24312F0803F04BF50
:1025900051F8043B4CF8044BEAD023460CF8013BBD
:1025A00013F0FF0F4FEA3323F8D15DF8044B704767
:1025B00011F0010F06D011F8012B0CF8012B002AA5
:1025C00008BF704711F0020FBFD031F8022B12F094
:1025D000FF0F16BF2CF8022B8CF8002012F47F4F4F
:1025E000B3D1704711F8012B0CF8012B002AF9D157
:1025F000704700BF20F0030110F00300C0F100009D
:1026000051F8043B00F1040C4FEACC0C6FF00002CF
:102610001CBF22FA0CF213434FF0010C4CEA0C2CB5
:102620004CEA0C4CA3EB0C0222EA030212EACC1295
:1026300004BF51F8043B0430F4D0C2F1000102EAB7
:102640000102B2FA82F2C2F11F0200EBD20070471F
:102650002DE9F04FC1B00C46099115460E930A9032
:1026600002F060FB036818461793FFF7C3FFA389C6
:1026700016901E0603D52369002B01F05D8100230F
:102680001A46A8460DF1C009DFF860A41293199309
:102690000B9325932493CDF88C901492159298F86F
:1026A00000304446EBB1252B02D11AE0252B03D094
:1026B00014F8013F002BF9D1C8EB04058DB1249B20
:1026C000259A01332A44072BC9F80080C9F8045021
:1026D0002592249300F3328309F108090B9B2B44C4
:1026E0000B932378002B00F0EA814FF0FF3B5D460F
:1026F00000231A468DF86F3019460C9307936378C0
:1027000004F1010808F10108A3F12000582800F2A3
:102710004586DFE810F0F30343064306FC03430657
:102720004306430643064306430659000404430692
:102730006600D0034306EC03BC05BC05BC05BC0524
:10274000BC05BC05BC05BC05BC05430643064306E9
:102750004306430643064306430643064306E20593
:10276000F7044306F70443064306430643064205BF
:10277000430643064A05430643064306430643060B
:10278000740543064306CD05430643064306430648
:102790004306430643064306430643061D060E064C
:1027A000F704F704F70415060E0643064306A304D0
:1027B0004306A805AE046D000A044306120443064E
:1027C00035044306430670040E9C236818460C9398
:1027D0002346002803F104030E9306DA0C9B5B42A8
:1027E0000C93079B43F00403079398F8003089E7A4
:1027F000AB460E9A0027079830217823BB45146812
:102800008DF8701002F104024FF000058DF8713060
:102810008DF86F7040F00201C0F23D8620F080011B
:1028200041F00201079154EA05010E921193AD485F
:1028300000F0318130AE230943EA0573290904F021
:102840000F020D461C46835C06F8013D54EA050361
:10285000F1D130AB9B1B0D930D9B5B45B8BF5B4625
:1028600008930023139317B1089B01330893079B28
:1028700013F002030F9302D0089B02330893079BC7
:1028800013F08403109340F018810C9B089A9D1A52
:10289000002D40F31281102D2599249A924F27DDA7
:1028A000189648461024B946099E2F460A9D04E012
:1028B000103F102F00F1080016DD01328A4B103155
:1028C000072A2591249280E81800F1DD23AA3146D9
:1028D000284603F0BFF8002840F0F880103F102F82
:1028E00030A82599249AE8DC3D464F468146189E3B
:1028F00001326C18072A25942492C9F80070C9F88F
:10290000045000F3D0809DF86F7009F1080977B189
:10291000249B013401330DF16F010122072B259413
:10292000249389E8060000F3208209F108090F9B2F
:102930006BB1249B023401331CA90222072B25947E
:10294000249389E8060000F31C8209F10809109B12
:10295000802B00F02C810D9BC3EB0B07002F33DD88
:10296000624A102F249B0F9222DD22464FF0100B5B
:102970000A9D099C04E0103F102F09F1080916DD9B
:1029800001331032072B2592249389E8000CF2DDE5
:1029900023AA2146284603F05DF8002840F09680DF
:1029A000103F102F0DF1C009259A249BE8DC144636
:1029B00001330F9A3C44072B2594249389E8840023
:1029C00000F3C78109F10809079BDA0500F190803F
:1029D000249B0D9901330C44072B2594C9F8006002
:1029E000C9F80410249300F3E28109F10809079B58
:1029F000590736D50C9B089A9D1A002D31DD102DF4
:102A0000249B394F22DD22461026DDF828B0099C90
:102A100004E0103D102D09F1080916DD013332499B
:102A20001032072B2592249389E84200F1DD23AA76
:102A30002146584603F00EF8002847D1103D102DCE
:102A40000DF1C009259A249BE8DC144601332C447F
:102A5000072B25942493C9F80070C9F8045000F39B
:102A600092840B9B0C9A08998A42ACBF9B185B1806
:102A70000B93002C40F05981002324930DF1C009E1
:102A80000DE60027BB458DF86F70C0F20E85079BE1
:102A900023F080030793BBF1000F00F06C84002447
:102AA00000250027C6E623AA09990A9802F0D2FF5A
:102AB00060B99DF86F700DF1C009259C27E7259B33
:102AC00023B10A9823AA099902F0C4FF099B9B89A4
:102AD00013F0400F0B9B18BF4FF0FF33184641B067
:102AE000BDE8F08F90680008B06800085C680008D6
:102AF000119B652B40F39F801498159900220023A9
:102B000003F080FC002800F06381249BAE49013370
:102B100001340122072B2594249389E8060000F351
:102B2000538409F108091D9B129A934203DB079B0A
:102B3000DB077FF55CAF249B16990133179A0C4491
:102B4000072B2594C9F80020C9F80410249300F33A
:102B5000E68609F10809129B5D1E002D7FF747AF3D
:102B60009A4A102D249B0F9240F3178110260A9F3A
:102B7000DDF824B005E009F10809103D102D40F3FF
:102B80000C8101331034072B25942493C9F800A03D
:102B9000C9F80460EFDD23AA5946384602F05AFF0F
:102BA000002893D10DF1C009259C249BE5E70C9BDF
:102BB000089A9F1A002F7FF7CEAE844A102F249BCD
:102BC0000F922BDD4A462146B946102537460A9C0E
:102BD000099E06E0A9F11009B9F1100F02F10802EF
:102BE00018DD01331031072B25912493C2F800A082
:102BF0005560EFDD23AA3146204602F02BFF002866
:102C00007FF464AFA9F11009B9F1100F30AA25992A
:102C1000249BE6DC3E460C464F46914601330F9A14
:102C20003C44072B2594249389E8840000F32B85EA
:102C300009F108098FE6129B249D012B04F1010480
:102C400005F1010540F3E8840123072D2594C9F817
:102C500000602495C9F8043000F3F98409F10809EB
:102C6000169A0135179B1444072D25942495C9F80D
:102C70000030C9F8042000F3F88409F108090023A2
:102C800014981599002203F0BDFB129B002800F058
:102C9000EA805E1E002E40F3F5804C4B102E0F9301
:102CA0002CDDCDF834801027B046DDF828B0099E21
:102CB00006E0A8F11008B8F1100F09F108091ADDB3
:102CC00001351034072D25942495C9F800A0C9F8C2
:102CD0000470EEDD23AA3146584602F0BBFE002800
:102CE0007FF4F4AEA8F11008B8F1100F0DF1C0098F
:102CF000259C249DE4DC4646DDF8348001350F9B9D
:102D00003444072D2594249589E8480040F3B88081
:102D100023AA09990A9802F09DFE00287FF4D6AEF6
:102D2000259C249D0DF1C009ACE023AA09990A98BD
:102D300002F090FE00283FF49FAEC7E623AA09994F
:102D40000A9802F087FE00287FF4C0AE0DF1C0099A
:102D5000C4E423AA09990A9802F07CFE00287FF4B3
:102D6000B5AE0DF1C009259C2EE623AA09990A9853
:102D700002F070FE00287FF4A9AE0DF1C009259C79
:102D8000D5E523AA09990A9802F064FE00287FF489
:102D90009DAE0DF1C009259CD9E501330F9A2C4455
:102DA000072B2594249389E824007FF71EAE23AADD
:102DB00009990A9802F04EFE00287FF487AE259C00
:102DC0000DF1C00913E600BFAC6800085C6800089C
:102DD0001D9D002D40F30E83139B129A9342A8BFB2
:102DE0001346002B1D460DDD249B2C440133072B7D
:102DF0002594C9F80060C9F80450249300F315869F
:102E000009F10809139B002DA8BF5B1B002B1D4671
:102E100040F3A083B94A102D249B0F9240F34585BF
:102E200022461027DDF828B0099C05E009F10809C1
:102E3000103D102D40F3388501331032072B2592B9
:102E40002493C9F800A0C9F80470EFDD23AA214635
:102E5000584602F0FFFD00287FF438AE0DF1C0099E
:102E6000259A249BE4E7013B013501361C44072DDC
:102E7000C9F8006024952594C9F804303FF748AF9D
:102E800009F10809199A013514441FAB072D25943F
:102E90002495C9F80420C9F800307FF7A6AD23AA0D
:102EA00009990A9802F0D6FD00287FF40FAE0DF1C3
:102EB000C009259C9BE598F8003008F101042A2BF5
:102EC00000F02B87A3F13000092898BF002500F2FD
:102ED000AF8614F8013B05EB850500EB4505A3F132
:102EE00030000928F5D945EAE575A0460CE4079BB2
:102EF00043F08003079398F8003003E498F800301B
:102F000000297FF4FFAB01222021FFF7FBBB079BC9
:102F100043F00103079398F80030FFF7F3BB98F8EC
:102F2000003001222B21FFF7EDBB079B43F020036C
:102F3000079398F80030FFF7E5BB0E9AAB4616688A
:102F4000002511938DF86F50141D002E00F0E585BB
:102F5000BBF1000FC0F23F855A462946304602F0C9
:102F600091F9002800F05886AB46831B0D9323EAA5
:102F7000E3730E940893CDF84CB09DF86F7072E433
:102F80001193AB46002A40F0ED86079A12F0200319
:102F900000F043810E9C0027073424F0070303F15F
:102FA0000801BB450E91D3E900458DF86F70C0F262
:102FB000C18222F08003079354EA050300F04881A0
:102FC000002D08BF0A2CC0F0488130AE20462946AB
:102FD0000A22002303F086FA303206F8012D20463B
:102FE000294600230A2203F07DFA04460D4654EADE
:102FF0000503EBD12DE41193AB46002A40F0CA86BD
:10300000079B3F489D0640F15D810E9C073424F0EC
:10301000070303F108020E92D3E90045079A12F064
:10302000010700F0468254EA05033FF42AAD9DF8FB
:10303000442000278DF87120079A3023BB458DF876
:1030400070308DF86F7042F00203C0F28D8522F06F
:10305000800343F002030793FFF7ECBB98F80030BE
:103060006C2B00F05284079840F010000790FFF797
:1030700049BB1193AB46002A40F09486079A12F0A0
:10308000200300F0A0800E9C0027073424F00703E3
:1030900003F10801BB450E91D3E900458DF86F702F
:1030A0000BDB22F08003079354EA050306D1BBF142
:1030B000000F00F0A28500240025002730AEE208B2
:1030C00042EA4572E90804F007030D46144630331E
:1030D00054EA050206F8013DF1D1079AD1077FF5C0
:1030E000B8AB302B3FF4B5AB3022731E06F8012C81
:1030F00030AAD21A0D921E46FFF7AEBB5C680008DC
:10310000906800081193AB46002A40F04786079B61
:103110000E9C1A0704F1070440F16C8324F00703A6
:1031200003F108020E921A685B6814921593159BBE
:10313000149D23F00044284621464FF0FF32A94B4E
:1031400003F092F9002840F0CD82284621464FF046
:10315000FF32A44B03F06AF9002840F0C3821498B0
:1031600015990022002303F057F9002840F0F68457
:103170009DF86F7007999C4E21F080019B4B079141
:10318000119903224FF0000B08924729D8BF1E4621
:103190000D92CDF84CB0FFF766BB079B43F00803D8
:1031A000079398F80030FFF7ADBA1193AB46002AA9
:1031B00040F0EC85079B43F010030793079A12F049
:1031C00020037FF460AF079911F0100200F06882CD
:1031D0000E98BBF1000F024604688DF86F3002F1C3
:1031E00004024FF00005C0F2C28421F08001079173
:1031F00054EA05010E923FF45AAF1F465EE7119361
:10320000AB46002A40F0BE85079B43F010030793AE
:10321000079A12F020037FF4BDAE079911F0100257
:1032200000F026830E98BBF1000F024604688DF86B
:103230006F3002F104024FF00005C0F28C8421F0DF
:103240008001079154EA05010E921F467FF4B8AE43
:10325000BBF1000F00F09080002440AE303406F83F
:10326000414DFFF7F6BA002A40F08885079B9B0680
:1032700040F1CA820E9A134604330E930B9B1168D9
:10328000DD171A462B46C1E90023FFF708BAA3F160
:10329000300000231C4618F8013B04EB840400EBCB
:1032A0004404A3F130000928F5D90C94FFF72CBA97
:1032B0001193AB46002A40F05D85079B4C489D0664
:1032C0003FF5A3AE079BDC0640F1B5820E9A0025C0
:1032D0001346043314680E93A0E61193AB46002AFC
:1032E00040F04485079B43F010030793079B980623
:1032F00040F1F1800E9C073424F00704D4E9002348
:1033000004F108011D4614460E91002A73F10003D2
:10331000C0F2F280BBF1000F9DF86F70C0F20A811D
:10332000079B23F08003079354EA05037FF448AE1C
:103330008EE71193AB46002AD8D08DF86F10D5E7F1
:10334000079B43F04003079398F80030FFF7DAB982
:103350000E9911930A68002301201F468DF86F30E3
:103360009B4613930B1D08908DF898200E930D909B
:1033700026AEFFF77CBA5F464FF0000BCDF834B0B5
:1033800030AEFFF769BA23AA09990A9802F062FBE6
:1033900000287FF49BAB259CFFF763BB1193002AA9
:1033A00040F0D384119A002A3FF489AB0023012115
:1033B0001F4608918DF898208DF86F309B46139327
:1033C0000D9126AEFFF753BA23AA09990A9802F085
:1033D00041FB00287FF47AAB0DF1C009259CFFF773
:1033E000A2BB00BFFFFFEF7F706800086C68000899
:1033F0007C680008249BB849013301340122072B63
:103400002594249389E8060000F3C28209F1080993
:103410002DB9129B1BB9079BDF077FF5E8AA249BF8
:1034200016990133179A0C44072B2594C9F80020EC
:10343000C9F80410249300F3FF8309F108096D42D1
:10344000002D40F3DB82A54A102D0F9240F34B83F1
:1034500022461027DDF828B0099C05E009F108098B
:10346000103D102D40F33E8301331032072B25927F
:103470002493C9F800A0C9F80470EFDD23AA2146FF
:10348000584602F0E7FA00287FF420AB0DF1C0099E
:10349000259A249BE4E792480791119354EA050387
:1034A0000E924FF000077FF4C5A900240025FFF716
:1034B000C1B9BBF1000F8DF86F70C0F2038222F02A
:1034C0008003079354EA05037FF4B4A9BBF1000F0E
:1034D0007FF4E5AA4FE7079BD90640F1BA810E9A1F
:1034E00013461C680433E51722460E932B46002A28
:1034F00073F10003BFF60EAF64424FF02D0765EB8A
:103500004505BBF1000F8DF86F70FFF659AD079BB5
:1035100023F08003079353E50E9ABBF1000F134687
:1035200014688DF86F7003F104034FF0000580F20A
:10353000E2810E9354EA05037FF442AD8DE623AA9F
:1035400009990A9802F086FA00287FF4BFAA259C00
:103550000DF1C009139A1D9B32441746129A9342EB
:1035600049DB079AD50746D412990E44F51BCB1AAE
:103570009D42A8BF1D46002D2E460DDD249A2C44E9
:103580000132072A2594C9F80070C9F80450249222
:1035900000F3D28209F10809002EB4BF1D469D1B1D
:1035A000002D7FF724AA4D4A102D249B0F927FF700
:1035B000F4AB10260A9FDDF824B005E009F10809F4
:1035C000103D102D7FF7E9AB01331034072B259404
:1035D0002493C9F800A0C9F80460EFDD23AA594676
:1035E000384602F037FA00287FF470AA0DF1C009BE
:1035F000259C249BE4E7249A1698013217990444E9
:10360000072A2594C9F80010C9F80400249200F391
:10361000778209F10809A7E7079BD8073FF514ABA4
:103620000123072D2594C9F800602495C9F80430BA
:103630007FF726AC23AA09990A9802F00BFA002812
:103640007FF444AA0DF1C009259C249D1AE423AA05
:1036500009990A9802F0FEF900287FF437AA0DF1C3
:10366000C009259C249DFFF7FBBA23AA09990A9853
:1036700002F0F0F900287FF429AA0DF1C009259C79
:10368000249DFFF7FCBA23AA09990A9802F0E2F9EF
:1036900000287FF41BAA0DF1C009259CFFF75BB938
:1036A000079911F0400700F00F810E98BBF1000F51
:1036B000034604888DF86F2003F104034FF00005E2
:1036C000C0F2738121F08001079154EA05010E9345
:1036D0003FF4EDAC1746F1E4AC6800085C68000804
:1036E00090680008149C22462046159C23462146DB
:1036F00002F0BAFE002840F0C182119BBBF1FF3FEF
:1037000023F020030D9300F04982472B00F05081F5
:10371000079B43F480731093159B1F1E149B089303
:10372000B7BF3B46002303F100472D230F93119BA6
:10373000662B00F01F82462B00F00D810D9B21A807
:10374000452B18BF5D461EA908BF0BF1010504906B
:1037500003911DA802213B460290089A0195009111
:103760000A9800F0B9FB119B0646672B40F03482A3
:10377000079BDA0740F16F827419089839460022D6
:10378000002302F03FFE002840F04D81219B9C4227
:1037900006D930215A1C21921970219B9C42F9D8DC
:1037A0009B1B12930D9B472B00F03681119B652BC1
:1037B00040F32182119B662B1D9B139300F0FE8129
:1037C000139A12998A42C0F2EC81079BD90700F143
:1037D000448222EAE2730D92672211920F9A002A24
:1037E00040F0EF800893109B934607939DF86F700D
:1037F000FFF739B824F0070423681493636815931E
:1038000004F108030E9392E4079BDF060BD4079B99
:103810005E0608D50E9A136804320E92BDF82C206D
:103820001A80FEF73CBF0E9A136804320E920B9A70
:103830001A60FEF734BF0E9A079B002513F0400F65
:10384000134603F104030CBF146814880E93FFF7AA
:10385000E5BB079B0E9A13F0400F13463FF441AEB1
:10386000B2F900400433E5170E9322462B464CE58F
:10387000079911F040073FF44FAE0E98BBF1000FCF
:10388000034604888DF86F2003F104034FF0000510
:10389000C0F2948021F08001079154EA05010E9353
:1038A00017467FF48DABD3E4144601330F9A2C44B2
:1038B000072B2594249389E824003FF740AE09F1B3
:1038C000080947E60E9AE9E50E9ABBF1000F134688
:1038D00014688DF86F7003F104034FF0000564DB8A
:1038E000079A0E9322F08002079254EA05027FF4B1
:1038F000E5ABFFF7DCBB079A0E9322F0800207923C
:1039000054EA05027FF45CABA2E4079B08F10108CE
:1039100043F02003079398F80030FEF7F3BE23AA84
:1039200009990A9802F096F800287FF4CFA80DF1C3
:10393000C009259CFFF70FB940210A9801F0F6F95C
:10394000099A10601061002800F0F581099A40235F
:103950005361FEF794BE21A81EA9049003911DA8EF
:1039600003210290089A3B46CDF804B000910A98D2
:1039700000F0B2FA5D460646119B7419462B7FF49F
:10398000FCAE3378302B00F097811D9D2C44F4E67B
:1039900023AA09990A9802F05DF800287FF496A8F6
:1039A0000DF1C0091D9D259C32E50E93FFF785BBE7
:1039B000BBF1000F08BF4FF0010BA9E60E931746AD
:1039C000B8E50893109B2D2707938DF86F704FF083
:1039D000000BFEF749BF3046FEF70CFEAB46034630
:1039E000FFF7C4BA23AA09990A9802F033F800280D
:1039F0007FF46CA8259C249B0DF1C009129901331A
:103A00000C44072B25942493C9F80060C9F80410CE
:103A10007EF7EBAFFFF7CBB91D9BDD1C12DB9B459F
:103A200010DB1393CCE62346BAE623AA09990A9839
:103A300002F010F800287FF449A80DF1C009259C78
:103A4000FFF7E0B9119A023A1192013B9DF8442028
:103A5000002B1D93B8BF5B428DF87C20B4BF2D2294
:103A60002B22092B8DF87D2040F300810DF18B0076
:103A70000446B84A82FB0321DA17C2EBA10101EB2D
:103A80008102A3EB4202303209290B4604F8012DD2
:103A9000EFDC21463033DAB201F8012D884240F2E2
:103AA00051810DF17E01234601E013F8012B98426C
:103AB00001F8012BF9D1431C1B1B0DF17E021344AD
:103AC0001FAA9B1A129A1993012A13440D9340F3CB
:103AD00009810D9B169A134400220D93139223EA39
:103AE000E3737BE6144601330F9A2C44072B25948D
:103AF000249389E824003FF775AF09F108097DE7B1
:103B000023AA09990A9801F0A5FF00287EF4DEAFE8
:103B10000DF1C0091D9B259C26E55B46062B28BFA1
:103B200006230D9323EAE373B346374613960E94A8
:103B30000893894EFEF797BE23AA09990A9801F0C7
:103B400089FF00287EF4C2AF1D9B129A259CD31AD0
:103B50000DF1C00920E50E921F46EBE42D231F4610
:103B60008DF86F30FFF706BB0793FEF763BE0E922A
:103B7000FFF7A3BA21A81EA9049003911DA8032151
:103B80000290089A3B46CDF804B000910A9800F0E4
:103B9000A3F95D46064600EB0B04F2E64FF0060B78
:103BA000B6E5169A129B1344139A0D93002A40F31C
:103BB0009180672223EAE37311920FE6002B40F312
:103BC0009B80BBF1000F6ED1079AD4076BD41A46C5
:103BD00023EAE3730D9201E6119B472B7FF4CCADF2
:103BE000079BDB073FF5C8AE219B9B1B12930D9BE8
:103BF000472B3FF411AF1D9B27E7079B5F46DB0771
:103C000005D540AE302306F8413DFEF722BECDF883
:103C100034B030AEFEF720BE2BEAEB73CDF834B0F3
:103C2000089383460E9413909DF86F70FEF71BBEA9
:103C3000A0460025FEF768BD23AA09990A9801F05D
:103C400009FF00287EF442AF0DF1C0091D9D259C9F
:103C5000249BFFF7F4BB219BA2E5169A139B134408
:103C600067220D93119223EAE373B7E530333022D4
:103C70008DF87F308DF87E2020AB21E70799374EF5
:103C800021F08001364B0791119903224FF0000B70
:103C900008924729D8BF1E460D92CDF84CB09DF82A
:103CA0006F70FEF7E0BD139B169A9D1805EB0B0392
:103CB0000D9323EAE37391E5089839460022002327
:103CC00002F0A0FB00287FF460AEC5F101051D9550
:103CD0002C4452E5139B0D9AC3F101031A44134679
:103CE0000D9266E7079B13F001037FF4F2AE139386
:103CF0000D9B23EAE37371E5BBF1000F02D1079B33
:103D0000D80707D5169B5D1C05EB0B030D9323EA23
:103D1000E37363E501230D9360E50E9898F8013095
:103D200005680430002D0E90A046BEF6EBAC4FF0B7
:103D3000FF35FEF7E7BC0A9A0C2313604FF0FF3003
:103D4000FEF7CDBE0DF17E03BAE68DF86F10FFF7DA
:103D500029BB00BF67666666A4680008786800082B
:103D6000746800088DF86F10FFF70FB98DF86F10A9
:103D7000FFF7B8BA8DF86F10FFF79FBA8DF86F1084
:103D8000FFF774BA8DF86F10FFF73EBA8DF86F1019
:103D9000FFF710BA8DF86F10FFF732B98DF86F107A
:103DA000FFF7B5B98DF86F10FFF768B92DE9F04F3F
:103DB00003690F6983B09F4200F38980013F01F1DD
:103DC000140600F1140A56F827305AF82720013358
:103DD000B2FBF3F8BB00009306EB030953440193D5
:103DE000B8F1000F3BD000231C46B446D6465CF821
:103DF00004BBDEF800501FFA8BF208FB02324FEAD8
:103E00001B4B130C08FB0B3392B2A41A1FFA83FB53
:103E1000AAB22244CBEB154404EB224492B242EA0C
:103E20000442E1454EF8042B4FEA24444FEA134381
:103E3000DDD2009B5AF803308BB9019C231F9A45B1
:103E40000CD254F8043C4BB9A4F1080302E01A6800
:103E5000043B1AB99A4507F1FF37F8D307610446C6
:103E600001F0DEFC00282EDB00235546194608F140
:103E7000010856F8042B2B6890B2081A120C99B25C
:103E8000C2EB1343421803EB224392B242EA0342CD
:103E9000B14545F8042B4FEA2341EAD25AF82720CE
:103EA0000AEB87037AB91A1F92450BD253F8042CF8
:103EB00042B9083B02E01A68043B1AB99A4507F177
:103EC000FF37F8D32761404603B0BDE8F08F0020EC
:103ED00003B0BDE8F08F00BF2DE9F04F016C99B041
:103EE000814692469B46259C49B1426C01239340F2
:103EF0008B604A6001F0AEFA0023C9F84030BBF194
:103F0000000FD84633DB00232360A34B1A4608EA90
:103F10000303934214D0002200235046594602F076
:103F200071FA054648B3249A01231360269B002B9F
:103F300000F0C58099481860013819B0BDE8F08FCD
:103F400042F20F73249A1360BAF1000F00F0A280BE
:103F50009348269B002BF0D0C378002B00F0B18053
:103F600000F10803269A136019B0BDE8F08F012311
:103F70002BF000482360C346C7E716AA17AB01928F
:103F8000009352465B46484601F0FEFC5FEA185437
:103F9000099040F08880169D179C2C4404F232430F
:103FA000202B40F38A82C3F1400304F2124008FA46
:103FB00003F82AFA00F040EA0800FDF763FC012349
:103FC000013CA1F1F8710F930022764BFDF71CFB29
:103FD0006BA3D3E90023FDF7CBFC6BA3D3E900234C
:103FE000FDF714FB064620460F46FDF75BFC68A371
:103FF000D3E90023FDF7BCFC02460B4630463946A8
:10400000FDF704FB06460F4602F044FA0022039037
:1040100000233046394602F0FFF9002840F029829B
:10402000039E162E00F222825F49524601EBC60122
:104030005B46D1E9000102F00DFA002800F042824F
:10404000731E039300230D932C1B631E049300F136
:104050002B8200230693039B002BC0F21C82049A40
:104060000C9311461944002304910B93229B092BB6
:1040700029D8052B40F35286043B22930025229B2E
:10408000023B032B00F22F86DFE813F02703200208
:1040900032035304424B454AC8F31300002814BFAF
:1040A0001846104655E7CBF3130343F07F510F95A5
:1040B0005046A4F2FF3441F44011169D84E73C4879
:1040C0003BE7C31C4EE70021C9F844104846229143
:1040D00001F098F94FF0FF33229A07930E930123D2
:1040E00008902392C9F840000A93179B002BC0F256
:1040F000CA80039A0E2A00F3C6802B4B03EBC2033F
:1041000018CBCDE90434239B002BC0F2FC82564629
:104110005F46DDE904AB304652465B463946FDF763
:1041200051FD02F0B7F90446FDF7BCFB52465B4671
:10413000FDF71EFC02460B4630463946FDF764FA91
:10414000079E089F04F13005012E3D7002460B4684
:1041500007F101055ED00022164BFDF709FC002295
:10416000002306460F4602F04DF9002878D1CDF81D
:104170001890DDF81CA0DDF820B0DDE9048928E006
:1041800061436F63A787D23FB3C8608B288AC63F5D
:10419000FB799F501344D33F0000F07FAD680008C7
:1041A000CC6800080000F83FE0680008C06800081C
:1041B000AC680008000024400022C34BFDF7D8FB88
:1041C0000022002306460F4602F01CF9002840F0AA
:1041D000B38342464B4630463946FDF7F3FC02F0C6
:1041E00059F90446FDF75EFB42464B46FDF7C0FB1E
:1041F00002460B4630463946FDF706FA04F1300612
:1042000005F8016BCBEB0506564502460B46D3D1AC
:10421000DDF8189010461946FDF7F8F906460F46E6
:1042200002460B46DDE9040102F0F6F840B9DDE98B
:10423000040132463B4602F0E5F888B1E3070FD5AA
:1042400015F8014C6B1E089A04E09A4200F02C8489
:1042500013F8014D392C03F10105F6D001341C701F
:104260000999484601F0F6F80022039B2A70249A27
:1042700001331360269B002B00F0A88308981D6073
:1042800019B0BDE8F08F0A9A002A00F01281229A34
:10429000012A40F35A82079B0B9A5F1EBA42C0F272
:1042A0009883D71B079B002BC0F28C84069D079B2D
:1042B000069A01211A440692049A48461A44049226
:1042C00001F060F9064665B1049900290B4608DD46
:1042D000A942A8BF2B46069AED1AD21ACB1A06920B
:1042E00004930B9B002B40F3FD820A9A002A00F0F6
:1042F0000382002F00F0008231463A46484601F022
:10430000E9F9DDF82480014642460646484601F0B8
:1043100043F941460446484601F09CF80B9BDB1BE1
:104320000B9340F0E8810121484601F02BF90C9BEA
:104330008046002B00F01B8201461A46484601F0D9
:10434000C9F9229B8046012B40F3F9820027D8F857
:10435000103008EB8303186901F0C6F8C0F12000A3
:10436000049A104410F01F0000F0F881C0F12003FF
:10437000042B40F3CB84069BC0F11C00034406933E
:104380001346034405440493069B002B05DD214698
:104390001A46484601F0EEF90446049B002B05DD61
:1043A00041461A46484601F0E5F980460D9B002B30
:1043B00040F07D82079B002B40F396820A9B002BE6
:1043C00040F0F681DDF820A0079F554604E0214625
:1043D000484601F049F8044641462046FFF7E6FC0E
:1043E000303005F8010BCAEB0503BB424FF00A025F
:1043F0004FF00003EBDB089B079A8246012AACBF13
:104400009B1801331D464FF0000B21460122484600
:1044100001F0B0F94146099001F002FA002840F39A
:104420000E8315F8012C6B1E089904E08B4200F0F6
:10443000798213F8012D392A03F10105F6D00132F2
:104440001A704146484601F005F8002E3FF408AFC7
:10445000BBF1000F05D0B34503D05946484600F0E4
:10446000F9FF3146484600F0F5FFF9E601230D93C8
:10447000EAE5DDF80C804046FDF714FA02460B46EB
:104480003046394601F0BEFF00287FF4C9AD08F17F
:10449000FF330393C4E5069A039BD21A5B420B9346
:1044A000002306920C93E1E55B42069300230493FC
:1044B000D1E50B9F069D0A9E05E7C3F120080AFA85
:1044C00008F07AE50D90BFE50000244000230A9330
:1044D000039B239A13440E930133002B079340F35D
:1044E0008582079C26460021172EC9F844100BD957
:1044F000012204235B0003F11400B042114602F1D3
:104500000102F7D9C9F84410484600F07BFF0E2C91
:104510000890C9F840003FF6E8AD002D3FF4E5AD46
:104520005746D8460399CDE91078002940F3938285
:10453000924B01F00F020E1103EBC203F006D3E918
:10454000004540F14E828E4B5046D3E90823594630
:10455000FDF738FB82468B4606F00F064FF0030846
:1045600086B1874FF10709D5D7E9002320462946B0
:10457000FDF7FEF904460D4608F10108761007F133
:104580000807EFD122462B4650465946FDF71AFB45
:1045900006460F460D9B43B100227A4B3046394602
:1045A00001F03AFF002840F023834046FDF77AF9F6
:1045B00032463B46FDF7DCF9734B0022FDF726F847
:1045C000079B0446A1F15075002B00F0E181039B8D
:1045D0001393079B12930A9B002B00F09882129A68
:1045E000664B002003EBC20353E902236749FDF742
:1045F000E9FA22462B46FDF707F882468B463046FD
:10460000394601F047FF0446FDF74CF902460B46D8
:1046100030463946FCF7F8FF3034089DE4B20646D0
:104620000F462C7002460B4650465946013501F0A4
:1046300011FF00284ED132463B4600205149FCF77D
:10464000E3FF02460B465046594601F003FF00289F
:1046500040F00E83129A012A40F3B481129B089A0B
:10466000134498460FE032463B4600204549FCF78C
:10467000CBFF52465B4601F0CFFE002840F0F882A7
:10468000454500F09F81504659460022404BFDF7BA
:104690006FF900223E4B82468B4630463946FDF785
:1046A00067F90F46064601F0F5FE0446FDF7FAF8F5
:1046B00002460B4630463946FCF7A6FF3034E4B2DA
:1046C00005F8014B52465B4606460F4601F0A4FE34
:1046D0000028C8D0139B0393C2E500230A93239BB1
:1046E000002B40F388811E461C460E930793FAE682
:1046F00001230A93F3E709940B9A0999484600F0BD
:10470000E9FF04460FE6079B002B3FF700AD40F0A2
:10471000D982DDE9040100221E4BFDF729F952463A
:104720005B4601F08DFEDDF81C804646002800F057
:10473000F180239B089DDB4303934146484600F0EC
:1047400089FE002E3FF48CAD8BE60F9A002A00F014
:10475000418203F233430B9F069DA9E51C20069B73
:10476000054403440693049B034404930CE6229BF4
:10477000012B40F381820C9F0120F1E5E0680008E5
:10478000A86900080000F03F00001C400000E03F66
:104790000000244000001440314600230A2248460D
:1047A00000F062FE0E9B0646002B40F397820793B3
:1047B000002D05DD31462A46484600F0DBFF06465F
:1047C000002F40F07B810696079B089A013BD31887
:1047D000099317460AF00103C246DDF818B00A93A0
:1047E00051462046FFF7E2FA31460546204601F0E1
:1047F00017F85A4604905146484601F031F8C2680D
:10480000804605F13003002A49D10146204607932E
:1048100001F006F841460690484600F01BFE069A55
:10482000079B2AB9229919B90A99002900F0368202
:1048300004990029C0F2E48005D1229919B90A9996
:10484000002900F0DD80002A00F34C81099A07F16D
:10485000010897423B70454600F0538121460023F2
:104860000A22484600F000FE5E45044631464FF0FD
:1048700000034FF00A0248460BD000F0F5FD594600
:10488000064600230A22484600F0EEFD47468346CE
:10489000A6E700F0E9FD474606468346A0E7014645
:1048A0004846069300F0D6FD0122069BC0E741462C
:1048B000204600F0B5FF0028BFF67CAD2146039CE2
:1048C0000023013C0A224846039400F0CDFD0A9BD8
:1048D0000446002B7FF460AF0E9B002B40F3F68163
:1048E00007936FE5099C1EE5229B022B7FF766ADBF
:1048F000079B002B40F07A8141460522484600F094
:10490000B3FD01468046204600F08AFF0028099446
:104910007FF70FAF039A08993123013203920B708E
:104920004D1C0AE7039A312301320392089A13704F
:1049300087E501230A93CBE5DDF8189090E4BAF1FE
:10494000000F7FF403ADCBF31303002B40F0408145
:104950002BF000473F0D3F0537B1069B0127013380
:104960000693049B013304930C9B0120002B3FF41E
:10497000F7ACECE44046FCF795FF32463B46FCF7CB
:10498000F7FF0022BF4BFCF741FE0446A1F1507532
:10499000304639460022BC4BFCF736FE22462B46F9
:1049A00006460F4601F056FD8046002840F006817D
:1049B000224605F100433046394601F02DFD08B18D
:1049C0004646B6E6DDE910ABFFF78FBB0898FFF768
:1049D000B4BA0B9B0C9AFB1A1A440B970C92002743
:1049E00060E4DDE910AB4FF00208B9E51C46002198
:1049F000C9F8441088E5012423940E940794F6E73F
:104A0000002AD046CDF818B09A4611DD2146012281
:104A1000484600F0AFFE4146044600F001FF002882
:104A200040F34981BAF1390F00F0078105F1310AED
:104A3000B34687F800A07D1C069E099401E504D1C9
:104A40001AF0010F01D0ECE4154615F8013C6A1E7E
:104A5000302BF9D0F5E4039B5C42002C00F0C180C0
:104A6000DDE91001894B04F00F0203EBC203D3E927
:104A70000023FCF77DFF241106460F4600F02B8132
:104A8000834D4FF00208E20709D5D5E900233046EF
:104A90003946FCF76DFF06460F4608F10108641021
:104AA00005F10805EFD175E5089930220A70039ADF
:104AB00015F8014C01320392FFF7D0BB71684846EC
:104AC00000F0A0FC0546336906F10C019A1C920027
:104AD0000C3000F01DFC29460122484600F04AFE39
:104AE000069071E6392BCDF818B0D04600F0A580BD
:104AF00003F1010AB34687F800A07D1C069E0994C5
:104B00009FE45A46D046B3469A4616467DE4129B29
:104B10005E4903F1FF3A01EBCA012246D1E90001E7
:104B20002B46FCF725FFCDE914013946304601F04C
:104B3000B1FC0446FCF7B6FE0B4602463946304649
:104B4000FCF762FD129B0F4608993034012B064694
:104B50000C7001F101051FD0129B089AA84613445E
:104B60009B4600224B4B30463946FCF701FF0F466F
:104B7000064601F08FFC0446FCF794FE02460B4605
:104B800030463946FCF740FD303408F8014BC34548
:104B900006460F46E5D1554400223F4BDDE914019E
:104BA000FCF734FD32463B4601F036FC00284CD081
:104BB000139B039315F8014CFFF744BB4FF000081B
:104BC0004646A7E6069B079A9D1A0023FFF770BB8F
:104BD0000027C9E6169B0B9FC3F13603069DFFF71E
:104BE00067BBDDE910674FF00208D3E40994A0E544
:104BF000079B002B3FF4BEAE0E9B002B7FF7E2AE6F
:104C00000022244B30463946FCF7B2FE06460F46DA
:104C100008F10100FCF746FE32463B46FCF7A8FED1
:104C20000022184BFCF7F2FC039A0E9B013A044653
:104C30001392A1F150751293CDE43922B346099431
:104C4000069E3A707D1CFFF7EEBBDDE914230020C1
:104C50001149FCF7D9FC32463B4601F0FBFB08B991
:104C6000B0E6154615F8013C6A1E302BF9D031E547
:104C7000139B0393FFF7E6BABAF1000F7FF47BAD05
:104C800061E600BF00001C4000001440E06800081E
:104C9000A8690008000024400000E03F392BCDF84F
:104CA00018B0D046DDF810B09A46C6D0BBF1000F60
:104CB0003FF7BCAEBCE67FF4BBAE1AF0010F3FF489
:104CC000B7AEAFE64FF00008464632E5229B022B16
:104CD00021DC0E9B04E64FF002085BE4229B022BD2
:104CE00019DC0E9B63E50024C9F844402146484680
:104CF00000F088FB4FF0FF3307930E9301230890D9
:104D00002394C9F840000A93FFF7EFB93FF43CAB96
:104D1000C0F13C0023E50E9B0793E9E50125FFF771
:104D2000AEB900BF00487047440400202DE9F04FA1
:104D300001F10B05162D83B0064640F2A08035F038
:104D4000070500F1C080A94200F2BD8000F056FBCB
:104D5000B5F5FC7FC0F090826B0A00F0BB80042B9D
:104D600000F27781A80900F1390E4FEA4E01383080
:104D7000BE4F07EB81014C680839A14207D1AEE074
:104D8000002A80F2AE80E468A14200F0A880636847
:104D900023F003035A1B0F2AF2DDB4493C6901F1E9
:104DA000080E744500F0A881636823F003035A1BC2
:104DB0000F2A00F38E81002AC1F814E0C1F810E038
:104DC00080F29380B3F5007F80F05C81DB084A6855
:104DD0004FEAA3094FF0010C013351F833800CFA6C
:104DE00009F901EBC30C49EA0202ACF1080CC4F862
:104DF0000CC0C4F808804A6041F83340C8F80C4041
:104E0000831001249C4094427CD8144206D120F0A7
:104E100003006400144200F10400FAD007EBC0095B
:104E2000CC468046DCF80C108C4507D166E1002AA0
:104E300080F27481C9688C4500F060814B6823F072
:104E400003035A1B0F2AF2DD0C46CB6854F808CF37
:104E500045F00108C1F804800D4442F00101CCF88E
:104E60000C303046C3F808C07D613D61C5F80CE0E8
:104E7000C5F808E06960AA5000F0C2FA1FE01029E6
:104E800021D800F0BBFA102506230220774F07EB4C
:104E900083035C68A3F10802944200F038816368E0
:104EA000E16823F0030323445A68A56842F0010235
:104EB000E96030468D605A6000F0A2FA083420465E
:104EC00003B0BDE8F08F002420460C23336003B00C
:104ED000BDE8F08F80214FF0400E3F2048E770463C
:104EE0005BE723445A68E168DFE723445A683046A9
:104EF00042F001025A60083400F082FA204603B002
:104F0000BDE8F08FBC68636823F00308A84504D3AC
:104F1000C5EB08030F2B00F38C80554BDFF8609135
:104F20001A68D9F800302A44013304EB080A00F06B
:104F3000608102F580520F3222F47F6222F00F026C
:104F400011463046019200F073FDB0F1FF3F8346F9
:104F5000019A00F05881824500F2FC80454BDA4509
:104F600019681144196000F05381D9F80000DFF886
:104F700010E101301BBFCAEB0B0A5144CEF800B060
:104F800019601BF0070100F01781C1F10800C1F59D
:104F90008051834408315A44C2F30B02C2EB010929
:104FA00049463046019300F043FD431C019B00F04D
:104FB0003F81CBEB00024A4442F001021968BC4237
:104FC0004944C7F808B01960CBF80420DFF8A49072
:104FD00016D0B8F10F0F40F2FD806268A8F10C0303
:104FE00023F0070302F00102E0184FF0050E1A4308
:104FF0000F2B6260C0F804E0C0F808E000F21C81EA
:105000001D4BBC681A68914288BF19601B4B1A6817
:105010009142626888BF196022F003029542A2EBB8
:10502000050301D80F2B04DC304600F0E9F9002419
:1050300045E745F0010243F0010325446260304634
:10504000BD6008346B6000F0DBF9204603B0BDE8BA
:10505000F08F142B71D9542B00F2A480280B00F18F
:105060006F0E4FEA4E016E3082E600BF7C040020D6
:105070009C080020A0080020980800209408002028
:10508000880800205A0A042A5ED9142A00F2B38044
:1050900002F15C0149005B3207EB810C57F82110EB
:1050A000ACF1080C8C45DFF8D88100F088804A68A4
:1050B00022F00302934202D289688C45F7D1D1F8DD
:1050C0000CC07A68C4F80CC0A160CCF80840CC6071
:1050D00096E645F0010742F001032544676030463B
:1050E0004D610D61C5F80CE0C5F808E06B60AA5091
:1050F000083400F085F9E2E64A6881E608F1010823
:1051000018F0030F0CF1080C7FF48CAE30E0DC6873
:10511000A34208BF02303FF440AEC0E60C460B4449
:105120005A68C96854F8085F42F001025A60304674
:10513000E9608D6000F064F9C1E603F15C0E03F1F3
:105140005B004FEA4E0113E69A0902F1390149006A
:105150003832A1E7BC424A4B3FF400AF9C6862681A
:1051600022F003025AE759F80839994540F0828045
:1051700010F0030F00F1FF30F5D17B6823EA040340
:105180007B6064009C423FF6BDAE002C3FF4BAAE9B
:105190001C4240467FF442AE64001C4200F1040011
:1051A000FAD03BE6B3F5AA7F18D8E80B00F1780EE9
:1051B0004FEA4E017730DBE54FF48051EBE60121F9
:1051C000D8F80430921001FA02F21A43C8F8042009
:1051D000614677E70123CBF8043025E740F25452CB
:1051E000934220D8A80C00F17D0E4FEA4E017C308E
:1051F000BEE51032A4E6542A26D81A0B02F16F013C
:1052000049006E3248E7BC68626822F0030205E795
:10521000CAF30B0000287FF4A8AE4244BB6842F0FA
:1052200001025A60ECE6FE214FF07F0E7E209FE5E2
:1052300001224FF00009C1E604F10801304600F0F8
:1052400007FDD9F80010DBE6B2F5AA7F05D8DA0B26
:1052500002F17801490077321EE740F254518A4248
:1052600005D89A0C02F17D0149007C3214E7FE2139
:105270007E2211E77B6884E7E808431C5B0005E6B3
:105280007C040020830770B4CDB23DD0531E02B31E
:105290000278AA421ED0421C04E0D3B10478013B3C
:1052A000AC4217D012F0030F104602F10102F4D104
:1052B000032B11D853B30278AA420BD00344421CEB
:1052C00002E00178A94205D09342104602F10102A2
:1052D000F7D1002070BC704704460E0206F47F46EA
:1052E0002E4346EA0646226820467240A2F101316A
:1052F00021EA020212F0803F04F10404DBD1043BF6
:10530000032B2046EFD8D5E71346D1E71846E1E74F
:10531000844641EA000313F0030349D1403A23D302
:105320000B6803604B6843608B688360CB68C36025
:105330000B6903614B6943618B698361CB69C3610D
:105340000B6A03624B6A43628B6A8362CB6AC362F5
:105350000B6B03634B6B43638B6B8363CB6BC363DD
:1053600040304031403ADBD230320BD30B6803601F
:105370004B6843608B688360CB68C360103010312A
:10538000103AF3D20C3205D351F8043B40F8043BF9
:10539000043AF9D2043208D0D2071CBF11F8013BFD
:1053A00000F8013B01D30B8803806046704700BFC3
:1053B000082A13D38B07B1D010F00303AED0C3F18A
:1053C0000403D21ADB071CBF11F8013B00F8013BB4
:1053D000A4D331F8023B20F8023B9FE7043AD9D32B
:1053E000013A11F8013B00F8013BF9D20B78037048
:1053F0004B7843708B78837060467047704700BF6E
:10540000704700BFC26C70B505460C4652B152F8E9
:1054100024308BB1196842F82410002218461A6112
:10542000DA6070BD2122042100F094FBE86402469A
:105430000028ECD1002070BD012101FA04F6721D94
:105440002846920000F086FB03460028F2D0446014
:105450008660E2E731B1C36C4A6853F82200086005
:1054600043F82210704700BFF0B50C4605460E69A0
:1054700083B001F1140E0027DEF80000013781B27D
:1054800002FB0131000C0B0C02FB003389B201EB73
:105490000341BE424EF8041B4FEA1343ECDC3BB120
:1054A000A268964207DA04EB860201365361266150
:1054B000204603B0F0BD6168284601310193FFF733
:1054C000A1FF0746226904F10C01023292000C3060
:1054D000FFF71EFFEA6C6168019B52F82100206013
:1054E00042F821403C46DEE7030C1B04B3B900043C
:1054F000102310F07F4F04BF0002083310F0704FEC
:1055000004BF0001043310F0404F04BF8000023399
:10551000002807DB420003D4202070470023E8E77F
:10552000581C704718467047036813F0070207D0ED
:10553000D90720D49A0720D49B0803600220704723
:1055400099B209B91B0C102213F0FF0F04BF1B0AFC
:105550000832190704BF1B090432990704BF9B08CE
:105560000232D90704D45B0801D1202070470132F0
:10557000036010467047002070475B0803600120FD
:10558000704700BF10B50C460121FFF73BFF012219
:105590004461026110BD00BF2DE9F04F0D6916692D
:1055A00085B0B5420C46914604DA2A464C4635464B
:1055B00089461646A36805EB060861689845C8BF8A
:1055C0000131FFF71FFF00F1140A0AEB880BDA45DF
:1055D000019005D25346002143F8041B9B45FBD89C
:1055E00009F1140909EB860304F11402994502EB51
:1055F000850C59D2CDF808B0CDF80C809B4690466A
:1056000059F8047B1FFA87FEBEF1000F1FD04746F2
:105610005646002100E00646304657F8045B3468E1
:10562000ABB2A2B20EFB03222D0C240C0EFB0544E0
:10563000531804EB13419AB242EA0142BC454FEAC7
:10564000114140F8042BE6D8716059F8047C3F0CF6
:1056500022D0DAF80030002255461E4640469646D3
:1056600000E025462C460288360C07FB026699B2FC
:1056700006EB0E0241EA024344F8043B50F8041BD7
:105680006E68090CB3B207FB0131844501EB12438C
:105690004FEA134EE5D86B60CB450AF1040AAFD848
:1056A000DDF808B0DDF80C80B8F1000F0BDD5BF819
:1056B000043CABF1040B1BB105E05BF8043D13B9EE
:1056C000B8F10108F9D10198C0F8108005B0BDE823
:1056D000F08F00BF12F003032DE9F0411446074696
:1056E0002ED10E46A4101CD0BD6C95B3E3074FF02D
:1056F000000806D4641014D02868A8B10546E30752
:10570000F8D52A4631463846FFF746FFB6B17268EB
:10571000FB6C641053F82210316043F82260064697
:10572000EAD13046BDE8F0812A4629463846FFF7DF
:1057300033FF2860C0F800800546E0E70646D9E759
:105740000B4A013B52F823200023FFF78DFE06464B
:10575000C8E701213846FFF755FE40F271210122CA
:105760000023416102610546B8640360BEE700BFE3
:10577000D06900082DE9F84F0B69541104EB0308B8
:105780008B6808F101059D420E46914683464968A3
:1057900004DD5B009D4201F10101FADC5846FFF790
:1057A00031FE002C00F1140237DD02EB84030021EE
:1057B00042F8041B9342FBD1346906F1140119F03D
:1057C0001F0901EB840E20D0C9F1200C00240F68C2
:1057D0001A4607FA09FA4AEA040443F8044B51F856
:1057E000044B8E4524FA0CF4F1D854600CB108F146
:1057F0000205DBF84C307268013D53F82210056158
:10580000316043F82260BDE8F88F043B51F8042B67
:105810008E4543F8042FF9D8EBE71346CCE700BFD9
:1058200002690B69D21A12D19B0014301431194449
:1058300010B4034401E098420BD253F8044D51F8E0
:10584000042D9442F7D007D3012010BC70471046B6
:105850007047002010BC70474FF0FF30F5E700BFE5
:105860002DE9F0470B690C46116990465B1A002B35
:1058700018D1890004F1140602F114077318394491
:1058800001E09E4269D253F8045D51F8042D95421F
:10589000F7D06BD22346B24644463E4698464FF078
:1058A000010906E066DB04F1140602F1140A4FF068
:1058B00000096168FFF7A6FD5546D4F810E0D8F856
:1058C00010303746C0F80C900AEB830C06EB8E06BE
:1058D00000F114044FF0000957F8042B55F8041B8D
:1058E0001FFA82F808EB09031FFA81F8090CC8EBCC
:1058F0000303C1EB124202EB23429BB243EA024391
:10590000AC4544F8043B4FEA2249E5D8BE4218D9D9
:10591000A046BC465CF8042B95B205EB09010B14BC
:1059200003EB12428BB243EA0243664548F8043B5C
:105930004FEA2249EED8FF43374427F003070437E4
:105940003C44043C2BB954F8043D0EF1FF3E002BBF
:10595000F9D0C0F810E0BDE8F0870021FFF752FD54
:105960000122002302614361BDE8F087BA464FF08F
:1059700000099EE7234604F1140A08F11406444680
:105980004FF00109984694E7F0B5012183B01C4619
:10599000C3F30A551646FFF735FDC4F31304074653
:1059A0000DB144F48014019406B302A840F8086DC8
:1059B000FFF7BAFD002830D19DE80C007A61002B7A
:1059C0000CBF01210221BB613961D5B9089A07EBEF
:1059D0008103A0F2324010601869FFF785FD099B32
:1059E000C0EB41101860384603B0F0BD01A8FFF7C6
:1059F0009BFD019B0122114620303A617B61002D05
:105A0000E4D0A5F23343089A03441360099BC0F124
:105A100035001860384603B0F0BD019BC0F120018D
:105A2000009A03FA01F10A43C34001937A61C6E781
:105A300038B5074C0023054608462360FBF714FCE5
:105A4000431C00D038BD2368002BFBD02B6038BD31
:105A5000D40800202DE9F04F936883B09046002BC6
:105A600072D04FF000090D464C4683461668086810
:105A70008B68002C45D09C421F469A4646D3AB8982
:105A800013F4906F2DD06F69296907EB4707C1EBBD
:105A9000000A07EBD777601C7F105044B8423A46A3
:105AA00084BF07463A465B0533D511465846FFF793
:105AB0003DF9002837D0524629690190FFF728FCAC
:105AC000AA89019B22F4906242F08002AA81CAEB6B
:105AD000070203EB0A006F61A24627462B6128608C
